{
  "_format": "hh-sol-artifact-1",
  "contractName": "NFTMarket",
  "sourceName": "contracts/HFTMarket.sol",
  "abi": [
    {
      "inputs": [],
      "stateMutability": "nonpayable",
      "type": "constructor"
    },
    {
      "anonymous": false,
      "inputs": [
        {
          "indexed": true,
          "internalType": "address",
          "name": "owner",
          "type": "address"
        },
        {
          "indexed": true,
          "internalType": "address",
          "name": "approved",
          "type": "address"
        },
        {
          "indexed": true,
          "internalType": "uint256",
          "name": "tokenId",
          "type": "uint256"
        }
      ],
      "name": "Approval",
      "type": "event"
    },
    {
      "anonymous": false,
      "inputs": [
        {
          "indexed": true,
          "internalType": "address",
          "name": "owner",
          "type": "address"
        },
        {
          "indexed": true,
          "internalType": "address",
          "name": "operator",
          "type": "address"
        },
        {
          "indexed": false,
          "internalType": "bool",
          "name": "approved",
          "type": "bool"
        }
      ],
      "name": "ApprovalForAll",
      "type": "event"
    },
    {
      "anonymous": false,
      "inputs": [
        {
          "indexed": false,
          "internalType": "uint256",
          "name": "tokenID",
          "type": "uint256"
        },
        {
          "indexed": false,
          "internalType": "address",
          "name": "from",
          "type": "address"
        },
        {
          "indexed": false,
          "internalType": "address",
          "name": "to",
          "type": "address"
        },
        {
          "indexed": false,
          "internalType": "string",
          "name": "tokenURI",
          "type": "string"
        },
        {
          "indexed": false,
          "internalType": "uint256",
          "name": "price",
          "type": "uint256"
        }
      ],
      "name": "NFTTransfer",
      "type": "event"
    },
    {
      "anonymous": false,
      "inputs": [
        {
          "indexed": true,
          "internalType": "address",
          "name": "previousOwner",
          "type": "address"
        },
        {
          "indexed": true,
          "internalType": "address",
          "name": "newOwner",
          "type": "address"
        }
      ],
      "name": "OwnershipTransferred",
      "type": "event"
    },
    {
      "anonymous": false,
      "inputs": [
        {
          "indexed": true,
          "internalType": "address",
          "name": "from",
          "type": "address"
        },
        {
          "indexed": true,
          "internalType": "address",
          "name": "to",
          "type": "address"
        },
        {
          "indexed": true,
          "internalType": "uint256",
          "name": "tokenId",
          "type": "uint256"
        }
      ],
      "name": "Transfer",
      "type": "event"
    },
    {
      "inputs": [
        {
          "internalType": "address",
          "name": "to",
          "type": "address"
        },
        {
          "internalType": "uint256",
          "name": "tokenId",
          "type": "uint256"
        }
      ],
      "name": "approve",
      "outputs": [],
      "stateMutability": "nonpayable",
      "type": "function"
    },
    {
      "inputs": [
        {
          "internalType": "address",
          "name": "owner",
          "type": "address"
        }
      ],
      "name": "balanceOf",
      "outputs": [
        {
          "internalType": "uint256",
          "name": "",
          "type": "uint256"
        }
      ],
      "stateMutability": "view",
      "type": "function"
    },
    {
      "inputs": [
        {
          "internalType": "uint256",
          "name": "tokenID",
          "type": "uint256"
        }
      ],
      "name": "buyNFT",
      "outputs": [],
      "stateMutability": "payable",
      "type": "function"
    },
    {
      "inputs": [
        {
          "internalType": "uint256",
          "name": "tokenID",
          "type": "uint256"
        }
      ],
      "name": "cancelListing",
      "outputs": [],
      "stateMutability": "nonpayable",
      "type": "function"
    },
    {
      "inputs": [
        {
          "internalType": "string",
          "name": "tokenURI",
          "type": "string"
        }
      ],
      "name": "createdNFT",
      "outputs": [],
      "stateMutability": "nonpayable",
      "type": "function"
    },
    {
      "inputs": [
        {
          "internalType": "uint256",
          "name": "tokenId",
          "type": "uint256"
        }
      ],
      "name": "getApproved",
      "outputs": [
        {
          "internalType": "address",
          "name": "",
          "type": "address"
        }
      ],
      "stateMutability": "view",
      "type": "function"
    },
    {
      "inputs": [
        {
          "internalType": "address",
          "name": "owner",
          "type": "address"
        },
        {
          "internalType": "address",
          "name": "operator",
          "type": "address"
        }
      ],
      "name": "isApprovedForAll",
      "outputs": [
        {
          "internalType": "bool",
          "name": "",
          "type": "bool"
        }
      ],
      "stateMutability": "view",
      "type": "function"
    },
    {
      "inputs": [
        {
          "internalType": "uint256",
          "name": "tokenID",
          "type": "uint256"
        },
        {
          "internalType": "uint256",
          "name": "price",
          "type": "uint256"
        }
      ],
      "name": "listNFT",
      "outputs": [],
      "stateMutability": "nonpayable",
      "type": "function"
    },
    {
      "inputs": [],
      "name": "name",
      "outputs": [
        {
          "internalType": "string",
          "name": "",
          "type": "string"
        }
      ],
      "stateMutability": "view",
      "type": "function"
    },
    {
      "inputs": [],
      "name": "owner",
      "outputs": [
        {
          "internalType": "address",
          "name": "",
          "type": "address"
        }
      ],
      "stateMutability": "view",
      "type": "function"
    },
    {
      "inputs": [
        {
          "internalType": "uint256",
          "name": "tokenId",
          "type": "uint256"
        }
      ],
      "name": "ownerOf",
      "outputs": [
        {
          "internalType": "address",
          "name": "",
          "type": "address"
        }
      ],
      "stateMutability": "view",
      "type": "function"
    },
    {
      "inputs": [],
      "name": "renounceOwnership",
      "outputs": [],
      "stateMutability": "nonpayable",
      "type": "function"
    },
    {
      "inputs": [
        {
          "internalType": "address",
          "name": "from",
          "type": "address"
        },
        {
          "internalType": "address",
          "name": "to",
          "type": "address"
        },
        {
          "internalType": "uint256",
          "name": "tokenId",
          "type": "uint256"
        }
      ],
      "name": "safeTransferFrom",
      "outputs": [],
      "stateMutability": "nonpayable",
      "type": "function"
    },
    {
      "inputs": [
        {
          "internalType": "address",
          "name": "from",
          "type": "address"
        },
        {
          "internalType": "address",
          "name": "to",
          "type": "address"
        },
        {
          "internalType": "uint256",
          "name": "tokenId",
          "type": "uint256"
        },
        {
          "internalType": "bytes",
          "name": "_data",
          "type": "bytes"
        }
      ],
      "name": "safeTransferFrom",
      "outputs": [],
      "stateMutability": "nonpayable",
      "type": "function"
    },
    {
      "inputs": [
        {
          "internalType": "address",
          "name": "operator",
          "type": "address"
        },
        {
          "internalType": "bool",
          "name": "approved",
          "type": "bool"
        }
      ],
      "name": "setApprovalForAll",
      "outputs": [],
      "stateMutability": "nonpayable",
      "type": "function"
    },
    {
      "inputs": [
        {
          "internalType": "bytes4",
          "name": "interfaceId",
          "type": "bytes4"
        }
      ],
      "name": "supportsInterface",
      "outputs": [
        {
          "internalType": "bool",
          "name": "",
          "type": "bool"
        }
      ],
      "stateMutability": "view",
      "type": "function"
    },
    {
      "inputs": [],
      "name": "symbol",
      "outputs": [
        {
          "internalType": "string",
          "name": "",
          "type": "string"
        }
      ],
      "stateMutability": "view",
      "type": "function"
    },
    {
      "inputs": [
        {
          "internalType": "uint256",
          "name": "tokenId",
          "type": "uint256"
        }
      ],
      "name": "tokenURI",
      "outputs": [
        {
          "internalType": "string",
          "name": "",
          "type": "string"
        }
      ],
      "stateMutability": "view",
      "type": "function"
    },
    {
      "inputs": [
        {
          "internalType": "address",
          "name": "from",
          "type": "address"
        },
        {
          "internalType": "address",
          "name": "to",
          "type": "address"
        },
        {
          "internalType": "uint256",
          "name": "tokenId",
          "type": "uint256"
        }
      ],
      "name": "transferFrom",
      "outputs": [],
      "stateMutability": "nonpayable",
      "type": "function"
    },
    {
      "inputs": [
        {
          "internalType": "address",
          "name": "newOwner",
          "type": "address"
        }
      ],
      "name": "transferOwnership",
      "outputs": [],
      "stateMutability": "nonpayable",
      "type": "function"
    },
    {
      "inputs": [],
      "name": "withdrawFunds",
      "outputs": [],
      "stateMutability": "nonpayable",
      "type": "function"
    }
  ],
  "bytecode": "0x60806040523480156200001157600080fd5b506040518060400160405280600a81526020017f41626f7574204e465473000000000000000000000000000000000000000000008152506040518060400160405280600481526020017f414e465400000000000000000000000000000000000000000000000000000000815250816000908051906020019062000096929190620001a6565b508060019080519060200190620000af929190620001a6565b505050620000d2620000c6620000d860201b60201c565b620000e060201b60201c565b620002ba565b600033905090565b6000600760009054906101000a900473ffffffffffffffffffffffffffffffffffffffff16905081600760006101000a81548173ffffffffffffffffffffffffffffffffffffffff021916908373ffffffffffffffffffffffffffffffffffffffff1602179055508173ffffffffffffffffffffffffffffffffffffffff168173ffffffffffffffffffffffffffffffffffffffff167f8be0079c531659141344cd1fd0a4f28419497f9722a3daafe3b4186f6b6457e060405160405180910390a35050565b828054620001b49062000285565b90600052602060002090601f016020900481019282620001d8576000855562000224565b82601f10620001f357805160ff191683800117855562000224565b8280016001018555821562000224579182015b828111156200022357825182559160200191906001019062000206565b5b50905062000233919062000237565b5090565b5b808211156200025257600081600090555060010162000238565b5090565b7f4e487b7100000000000000000000000000000000000000000000000000000000600052602260045260246000fd5b600060028204905060018216806200029e57607f821691505b602082108103620002b457620002b362000256565b5b50919050565b613d8680620002ca6000396000f3fe60806040526004361061012a5760003560e01c806370a08231116100ab578063a22cb4651161006f578063a22cb465146103bb578063b88d4fde146103e4578063bae3a66f1461040d578063c87b56dd14610436578063e985e9c514610473578063f2fde38b146104b05761012a565b806370a08231146102e8578063715018a6146103255780638da5cb5b1461033c57806394383f141461036757806395d89b41146103905761012a565b806324600fc3116100f257806324600fc314610226578063305a67a81461023d57806342842e0e1461026657806351ed82881461028f5780636352211e146102ab5761012a565b806301ffc9a71461012f57806306fdde031461016c578063081812fc14610197578063095ea7b3146101d457806323b872dd146101fd575b600080fd5b34801561013b57600080fd5b506101566004803603810190610151919061255f565b6104d9565b60405161016391906125a7565b60405180910390f35b34801561017857600080fd5b506101816105bb565b60405161018e919061265b565b60405180910390f35b3480156101a357600080fd5b506101be60048036038101906101b991906126b3565b61064d565b6040516101cb9190612721565b60405180910390f35b3480156101e057600080fd5b506101fb60048036038101906101f69190612768565b6106d2565b005b34801561020957600080fd5b50610224600480360381019061021f91906127a8565b6107e9565b005b34801561023257600080fd5b5061023b610849565b005b34801561024957600080fd5b50610264600480360381019061025f91906126b3565b61095e565b005b34801561027257600080fd5b5061028d600480360381019061028891906127a8565b610b53565b005b6102a960048036038101906102a491906126b3565b610b73565b005b3480156102b757600080fd5b506102d260048036038101906102cd91906126b3565b610db1565b6040516102df9190612721565b60405180910390f35b3480156102f457600080fd5b5061030f600480360381019061030a91906127fb565b610e62565b60405161031c9190612837565b60405180910390f35b34801561033157600080fd5b5061033a610f19565b005b34801561034857600080fd5b50610351610fa1565b60405161035e9190612721565b60405180910390f35b34801561037357600080fd5b5061038e60048036038101906103899190612852565b610fcb565b005b34801561039c57600080fd5b506103a56110ec565b6040516103b2919061265b565b60405180910390f35b3480156103c757600080fd5b506103e260048036038101906103dd91906128be565b61117e565b005b3480156103f057600080fd5b5061040b60048036038101906104069190612a33565b611194565b005b34801561041957600080fd5b50610434600480360381019061042f9190612b16565b6111f6565b005b34801561044257600080fd5b5061045d600480360381019061045891906126b3565b6112ae565b60405161046a919061265b565b60405180910390f35b34801561047f57600080fd5b5061049a60048036038101906104959190612b63565b6113ff565b6040516104a791906125a7565b60405180910390f35b3480156104bc57600080fd5b506104d760048036038101906104d291906127fb565b611493565b005b60007f80ac58cd000000000000000000000000000000000000000000000000000000007bffffffffffffffffffffffffffffffffffffffffffffffffffffffff1916827bffffffffffffffffffffffffffffffffffffffffffffffffffffffff191614806105a457507f5b5e139f000000000000000000000000000000000000000000000000000000007bffffffffffffffffffffffffffffffffffffffffffffffffffffffff1916827bffffffffffffffffffffffffffffffffffffffffffffffffffffffff1916145b806105b457506105b38261158a565b5b9050919050565b6060600080546105ca90612bd2565b80601f01602080910402602001604051908101604052809291908181526020018280546105f690612bd2565b80156106435780601f1061061857610100808354040283529160200191610643565b820191906000526020600020905b81548152906001019060200180831161062657829003601f168201915b5050505050905090565b6000610658826115f4565b610697576040517f08c379a000000000000000000000000000000000000000000000000000000000815260040161068e90612c75565b60405180910390fd5b6004600083815260200190815260200160002060009054906101000a900473ffffffffffffffffffffffffffffffffffffffff169050919050565b60006106dd82610db1565b90508073ffffffffffffffffffffffffffffffffffffffff168373ffffffffffffffffffffffffffffffffffffffff160361074d576040517f08c379a000000000000000000000000000000000000000000000000000000000815260040161074490612d07565b60405180910390fd5b8073ffffffffffffffffffffffffffffffffffffffff1661076c611660565b73ffffffffffffffffffffffffffffffffffffffff16148061079b575061079a81610795611660565b6113ff565b5b6107da576040517f08c379a00000000000000000000000000000000000000000000000000000000081526004016107d190612d99565b60405180910390fd5b6107e48383611668565b505050565b6107fa6107f4611660565b82611721565b610839576040517f08c379a000000000000000000000000000000000000000000000000000000000815260040161083090612e2b565b60405180910390fd5b6108448383836117ff565b505050565b610851611660565b73ffffffffffffffffffffffffffffffffffffffff1661086f610fa1565b73ffffffffffffffffffffffffffffffffffffffff16146108c5576040517f08c379a00000000000000000000000000000000000000000000000000000000081526004016108bc90612e97565b60405180910390fd5b60004790506000811161090d576040517f08c379a000000000000000000000000000000000000000000000000000000000815260040161090490612f03565b60405180910390fd5b610915610fa1565b73ffffffffffffffffffffffffffffffffffffffff166108fc829081150290604051600060405180830381858888f1935050505015801561095a573d6000803e3d6000fd5b5050565b600060096000838152602001908152602001600020604051806040016040529081600082015481526020016001820160009054906101000a900473ffffffffffffffffffffffffffffffffffffffff1673ffffffffffffffffffffffffffffffffffffffff1673ffffffffffffffffffffffffffffffffffffffff168152505090506000816000015111610a27576040517f08c379a0000000000000000000000000000000000000000000000000000000008152600401610a1e90612f95565b60405180910390fd5b3373ffffffffffffffffffffffffffffffffffffffff16816020015173ffffffffffffffffffffffffffffffffffffffff1614610a99576040517f08c379a0000000000000000000000000000000000000000000000000000000008152600401610a9090613001565b60405180910390fd5b3073ffffffffffffffffffffffffffffffffffffffff166323b872dd3033856040518463ffffffff1660e01b8152600401610ad693929190613021565b600060405180830381600087803b158015610af057600080fd5b505af1158015610b04573d6000803e3d6000fd5b50505050610b1182611a65565b7f705332a8918666802fc1504f63ff1f002a5f6cedd30d59ad7ae0b5281aeb8dca8230336000604051610b4794939291906130c3565b60405180910390a15050565b610b6e83838360405180602001604052806000815250611194565b505050565b600060096000838152602001908152602001600020604051806040016040529081600082015481526020016001820160009054906101000a900473ffffffffffffffffffffffffffffffffffffffff1673ffffffffffffffffffffffffffffffffffffffff1673ffffffffffffffffffffffffffffffffffffffff168152505090506000816000015111610c3c576040517f08c379a0000000000000000000000000000000000000000000000000000000008152600401610c3390612f95565b60405180910390fd5b80600001513414610c82576040517f08c379a0000000000000000000000000000000000000000000000000000000008152600401610c7990613167565b60405180910390fd5b3073ffffffffffffffffffffffffffffffffffffffff166323b872dd3033856040518463ffffffff1660e01b8152600401610cbf93929190613021565b600060405180830381600087803b158015610cd957600080fd5b505af1158015610ced573d6000803e3d6000fd5b50505050610cfa82611a65565b806020015173ffffffffffffffffffffffffffffffffffffffff166108fc610d436064610d35605f8660000151611ada90919063ffffffff16565b611af090919063ffffffff16565b9081150290604051600060405180830381858888f19350505050158015610d6e573d6000803e3d6000fd5b507f705332a8918666802fc1504f63ff1f002a5f6cedd30d59ad7ae0b5281aeb8dca8230336000604051610da594939291906130c3565b60405180910390a15050565b6000806002600084815260200190815260200160002060009054906101000a900473ffffffffffffffffffffffffffffffffffffffff169050600073ffffffffffffffffffffffffffffffffffffffff168173ffffffffffffffffffffffffffffffffffffffff1603610e59576040517f08c379a0000000000000000000000000000000000000000000000000000000008152600401610e50906131f9565b60405180910390fd5b80915050919050565b60008073ffffffffffffffffffffffffffffffffffffffff168273ffffffffffffffffffffffffffffffffffffffff1603610ed2576040517f08c379a0000000000000000000000000000000000000000000000000000000008152600401610ec99061328b565b60405180910390fd5b600360008373ffffffffffffffffffffffffffffffffffffffff1673ffffffffffffffffffffffffffffffffffffffff168152602001908152602001600020549050919050565b610f21611660565b73ffffffffffffffffffffffffffffffffffffffff16610f3f610fa1565b73ffffffffffffffffffffffffffffffffffffffff1614610f95576040517f08c379a0000000000000000000000000000000000000000000000000000000008152600401610f8c90612e97565b60405180910390fd5b610f9f6000611b06565b565b6000600760009054906101000a900473ffffffffffffffffffffffffffffffffffffffff16905090565b6000811161100e576040517f08c379a00000000000000000000000000000000000000000000000000000000081526004016110059061331d565b60405180910390fd5b6110193330846107e9565b60405180604001604052808281526020013373ffffffffffffffffffffffffffffffffffffffff16815250600960008481526020019081526020016000206000820151816000015560208201518160010160006101000a81548173ffffffffffffffffffffffffffffffffffffffff021916908373ffffffffffffffffffffffffffffffffffffffff1602179055509050507f705332a8918666802fc1504f63ff1f002a5f6cedd30d59ad7ae0b5281aeb8dca823330846040516110e0949392919061333d565b60405180910390a15050565b6060600180546110fb90612bd2565b80601f016020809104026020016040519081016040528092919081815260200182805461112790612bd2565b80156111745780601f1061114957610100808354040283529160200191611174565b820191906000526020600020905b81548152906001019060200180831161115757829003601f168201915b5050505050905090565b611190611189611660565b8383611bcc565b5050565b6111a561119f611660565b83611721565b6111e4576040517f08c379a00000000000000000000000000000000000000000000000000000000081526004016111db90612e2b565b60405180910390fd5b6111f084848484611d38565b50505050565b6112006008611d94565b600061120c6008611daa565b90506112183382611db8565b6112668184848080601f016020809104026020016040519081016040528093929190818152602001838380828437600081840152601f19601f82011690508083019250505050505050611dd6565b7f705332a8918666802fc1504f63ff1f002a5f6cedd30d59ad7ae0b5281aeb8dca81600033868660006040516112a1969594939291906133c2565b60405180910390a1505050565b60606112b9826115f4565b6112f8576040517f08c379a00000000000000000000000000000000000000000000000000000000081526004016112ef90613490565b60405180910390fd5b600060066000848152602001908152602001600020805461131890612bd2565b80601f016020809104026020016040519081016040528092919081815260200182805461134490612bd2565b80156113915780601f1061136657610100808354040283529160200191611391565b820191906000526020600020905b81548152906001019060200180831161137457829003601f168201915b5050505050905060006113a2611e4a565b905060008151036113b75781925050506113fa565b6000825111156113ec5780826040516020016113d49291906134ec565b604051602081830303815290604052925050506113fa565b6113f584611e61565b925050505b919050565b6000600560008473ffffffffffffffffffffffffffffffffffffffff1673ffffffffffffffffffffffffffffffffffffffff16815260200190815260200160002060008373ffffffffffffffffffffffffffffffffffffffff1673ffffffffffffffffffffffffffffffffffffffff16815260200190815260200160002060009054906101000a900460ff16905092915050565b61149b611660565b73ffffffffffffffffffffffffffffffffffffffff166114b9610fa1565b73ffffffffffffffffffffffffffffffffffffffff161461150f576040517f08c379a000000000000000000000000000000000000000000000000000000000815260040161150690612e97565b60405180910390fd5b600073ffffffffffffffffffffffffffffffffffffffff168173ffffffffffffffffffffffffffffffffffffffff160361157e576040517f08c379a000000000000000000000000000000000000000000000000000000000815260040161157590613582565b60405180910390fd5b61158781611b06565b50565b60007f01ffc9a7000000000000000000000000000000000000000000000000000000007bffffffffffffffffffffffffffffffffffffffffffffffffffffffff1916827bffffffffffffffffffffffffffffffffffffffffffffffffffffffff1916149050919050565b60008073ffffffffffffffffffffffffffffffffffffffff166002600084815260200190815260200160002060009054906101000a900473ffffffffffffffffffffffffffffffffffffffff1673ffffffffffffffffffffffffffffffffffffffff1614159050919050565b600033905090565b816004600083815260200190815260200160002060006101000a81548173ffffffffffffffffffffffffffffffffffffffff021916908373ffffffffffffffffffffffffffffffffffffffff160217905550808273ffffffffffffffffffffffffffffffffffffffff166116db83610db1565b73ffffffffffffffffffffffffffffffffffffffff167f8c5be1e5ebec7d5bd14f71427d1e84f3dd0314c0f7b2291e5b200ac8c7c3b92560405160405180910390a45050565b600061172c826115f4565b61176b576040517f08c379a000000000000000000000000000000000000000000000000000000000815260040161176290613614565b60405180910390fd5b600061177683610db1565b90508073ffffffffffffffffffffffffffffffffffffffff168473ffffffffffffffffffffffffffffffffffffffff1614806117e557508373ffffffffffffffffffffffffffffffffffffffff166117cd8461064d565b73ffffffffffffffffffffffffffffffffffffffff16145b806117f657506117f581856113ff565b5b91505092915050565b8273ffffffffffffffffffffffffffffffffffffffff1661181f82610db1565b73ffffffffffffffffffffffffffffffffffffffff1614611875576040517f08c379a000000000000000000000000000000000000000000000000000000000815260040161186c906136a6565b60405180910390fd5b600073ffffffffffffffffffffffffffffffffffffffff168273ffffffffffffffffffffffffffffffffffffffff16036118e4576040517f08c379a00000000000000000000000000000000000000000000000000000000081526004016118db90613738565b60405180910390fd5b6118ef838383611f08565b6118fa600082611668565b6001600360008573ffffffffffffffffffffffffffffffffffffffff1673ffffffffffffffffffffffffffffffffffffffff168152602001908152602001600020600082825461194a9190613787565b925050819055506001600360008473ffffffffffffffffffffffffffffffffffffffff1673ffffffffffffffffffffffffffffffffffffffff16815260200190815260200160002060008282546119a191906137bb565b92505081905550816002600083815260200190815260200160002060006101000a81548173ffffffffffffffffffffffffffffffffffffffff021916908373ffffffffffffffffffffffffffffffffffffffff160217905550808273ffffffffffffffffffffffffffffffffffffffff168473ffffffffffffffffffffffffffffffffffffffff167fddf252ad1be2c89b69c2b068fc378daa952ba7f163c4a11628f55a4df523b3ef60405160405180910390a4611a60838383611f0d565b505050565b6000600960008381526020019081526020016000206000018190555060006009600083815260200190815260200160002060010160006101000a81548173ffffffffffffffffffffffffffffffffffffffff021916908373ffffffffffffffffffffffffffffffffffffffff16021790555050565b60008183611ae89190613811565b905092915050565b60008183611afe919061389a565b905092915050565b6000600760009054906101000a900473ffffffffffffffffffffffffffffffffffffffff16905081600760006101000a81548173ffffffffffffffffffffffffffffffffffffffff021916908373ffffffffffffffffffffffffffffffffffffffff1602179055508173ffffffffffffffffffffffffffffffffffffffff168173ffffffffffffffffffffffffffffffffffffffff167f8be0079c531659141344cd1fd0a4f28419497f9722a3daafe3b4186f6b6457e060405160405180910390a35050565b8173ffffffffffffffffffffffffffffffffffffffff168373ffffffffffffffffffffffffffffffffffffffff1603611c3a576040517f08c379a0000000000000000000000000000000000000000000000000000000008152600401611c3190613917565b60405180910390fd5b80600560008573ffffffffffffffffffffffffffffffffffffffff1673ffffffffffffffffffffffffffffffffffffffff16815260200190815260200160002060008473ffffffffffffffffffffffffffffffffffffffff1673ffffffffffffffffffffffffffffffffffffffff16815260200190815260200160002060006101000a81548160ff0219169083151502179055508173ffffffffffffffffffffffffffffffffffffffff168373ffffffffffffffffffffffffffffffffffffffff167f17307eab39ab6107e8899845ad3d59bd9653f200f220920489ca2b5937696c3183604051611d2b91906125a7565b60405180910390a3505050565b611d438484846117ff565b611d4f84848484611f12565b611d8e576040517f08c379a0000000000000000000000000000000000000000000000000000000008152600401611d85906139a9565b60405180910390fd5b50505050565b6001816000016000828254019250508190555050565b600081600001549050919050565b611dd2828260405180602001604052806000815250612099565b5050565b611ddf826115f4565b611e1e576040517f08c379a0000000000000000000000000000000000000000000000000000000008152600401611e1590613a3b565b60405180910390fd5b80600660008481526020019081526020016000209080519060200190611e45929190612450565b505050565b606060405180602001604052806000815250905090565b6060611e6c826115f4565b611eab576040517f08c379a0000000000000000000000000000000000000000000000000000000008152600401611ea290613acd565b60405180910390fd5b6000611eb5611e4a565b90506000815111611ed55760405180602001604052806000815250611f00565b80611edf846120f4565b604051602001611ef09291906134ec565b6040516020818303038152906040525b915050919050565b505050565b505050565b6000611f338473ffffffffffffffffffffffffffffffffffffffff16612254565b1561208c578373ffffffffffffffffffffffffffffffffffffffff1663150b7a02611f5c611660565b8786866040518563ffffffff1660e01b8152600401611f7e9493929190613b42565b6020604051808303816000875af1925050508015611fba57506040513d601f19601f82011682018060405250810190611fb79190613ba3565b60015b61203c573d8060008114611fea576040519150601f19603f3d011682016040523d82523d6000602084013e611fef565b606091505b506000815103612034576040517f08c379a000000000000000000000000000000000000000000000000000000000815260040161202b906139a9565b60405180910390fd5b805181602001fd5b63150b7a0260e01b7bffffffffffffffffffffffffffffffffffffffffffffffffffffffff1916817bffffffffffffffffffffffffffffffffffffffffffffffffffffffff191614915050612091565b600190505b949350505050565b6120a38383612277565b6120b06000848484611f12565b6120ef576040517f08c379a00000000000000000000000000000000000000000000000000000000081526004016120e6906139a9565b60405180910390fd5b505050565b60606000820361213b576040518060400160405280600181526020017f3000000000000000000000000000000000000000000000000000000000000000815250905061224f565b600082905060005b6000821461216d57808061215690613bd0565b915050600a82612166919061389a565b9150612143565b60008167ffffffffffffffff81111561218957612188612908565b5b6040519080825280601f01601f1916602001820160405280156121bb5781602001600182028036833780820191505090505b5090505b60008514612248576001826121d49190613787565b9150600a856121e39190613c18565b60306121ef91906137bb565b60f81b81838151811061220557612204613c49565b5b60200101907effffffffffffffffffffffffffffffffffffffffffffffffffffffffffffff1916908160001a905350600a85612241919061389a565b94506121bf565b8093505050505b919050565b6000808273ffffffffffffffffffffffffffffffffffffffff163b119050919050565b600073ffffffffffffffffffffffffffffffffffffffff168273ffffffffffffffffffffffffffffffffffffffff16036122e6576040517f08c379a00000000000000000000000000000000000000000000000000000000081526004016122dd90613cc4565b60405180910390fd5b6122ef816115f4565b1561232f576040517f08c379a000000000000000000000000000000000000000000000000000000000815260040161232690613d30565b60405180910390fd5b61233b60008383611f08565b6001600360008473ffffffffffffffffffffffffffffffffffffffff1673ffffffffffffffffffffffffffffffffffffffff168152602001908152602001600020600082825461238b91906137bb565b92505081905550816002600083815260200190815260200160002060006101000a81548173ffffffffffffffffffffffffffffffffffffffff021916908373ffffffffffffffffffffffffffffffffffffffff160217905550808273ffffffffffffffffffffffffffffffffffffffff16600073ffffffffffffffffffffffffffffffffffffffff167fddf252ad1be2c89b69c2b068fc378daa952ba7f163c4a11628f55a4df523b3ef60405160405180910390a461244c60008383611f0d565b5050565b82805461245c90612bd2565b90600052602060002090601f01602090048101928261247e57600085556124c5565b82601f1061249757805160ff19168380011785556124c5565b828001600101855582156124c5579182015b828111156124c45782518255916020019190600101906124a9565b5b5090506124d291906124d6565b5090565b5b808211156124ef5760008160009055506001016124d7565b5090565b6000604051905090565b600080fd5b600080fd5b60007fffffffff0000000000000000000000000000000000000000000000000000000082169050919050565b61253c81612507565b811461254757600080fd5b50565b60008135905061255981612533565b92915050565b600060208284031215612575576125746124fd565b5b60006125838482850161254a565b91505092915050565b60008115159050919050565b6125a18161258c565b82525050565b60006020820190506125bc6000830184612598565b92915050565b600081519050919050565b600082825260208201905092915050565b60005b838110156125fc5780820151818401526020810190506125e1565b8381111561260b576000848401525b50505050565b6000601f19601f8301169050919050565b600061262d826125c2565b61263781856125cd565b93506126478185602086016125de565b61265081612611565b840191505092915050565b600060208201905081810360008301526126758184612622565b905092915050565b6000819050919050565b6126908161267d565b811461269b57600080fd5b50565b6000813590506126ad81612687565b92915050565b6000602082840312156126c9576126c86124fd565b5b60006126d78482850161269e565b91505092915050565b600073ffffffffffffffffffffffffffffffffffffffff82169050919050565b600061270b826126e0565b9050919050565b61271b81612700565b82525050565b60006020820190506127366000830184612712565b92915050565b61274581612700565b811461275057600080fd5b50565b6000813590506127628161273c565b92915050565b6000806040838503121561277f5761277e6124fd565b5b600061278d85828601612753565b925050602061279e8582860161269e565b9150509250929050565b6000806000606084860312156127c1576127c06124fd565b5b60006127cf86828701612753565b93505060206127e086828701612753565b92505060406127f18682870161269e565b9150509250925092565b600060208284031215612811576128106124fd565b5b600061281f84828501612753565b91505092915050565b6128318161267d565b82525050565b600060208201905061284c6000830184612828565b92915050565b60008060408385031215612869576128686124fd565b5b60006128778582860161269e565b92505060206128888582860161269e565b9150509250929050565b61289b8161258c565b81146128a657600080fd5b50565b6000813590506128b881612892565b92915050565b600080604083850312156128d5576128d46124fd565b5b60006128e385828601612753565b92505060206128f4858286016128a9565b9150509250929050565b600080fd5b600080fd5b7f4e487b7100000000000000000000000000000000000000000000000000000000600052604160045260246000fd5b61294082612611565b810181811067ffffffffffffffff8211171561295f5761295e612908565b5b80604052505050565b60006129726124f3565b905061297e8282612937565b919050565b600067ffffffffffffffff82111561299e5761299d612908565b5b6129a782612611565b9050602081019050919050565b82818337600083830152505050565b60006129d66129d184612983565b612968565b9050828152602081018484840111156129f2576129f1612903565b5b6129fd8482856129b4565b509392505050565b600082601f830112612a1a57612a196128fe565b5b8135612a2a8482602086016129c3565b91505092915050565b60008060008060808587031215612a4d57612a4c6124fd565b5b6000612a5b87828801612753565b9450506020612a6c87828801612753565b9350506040612a7d8782880161269e565b925050606085013567ffffffffffffffff811115612a9e57612a9d612502565b5b612aaa87828801612a05565b91505092959194509250565b600080fd5b600080fd5b60008083601f840112612ad657612ad56128fe565b5b8235905067ffffffffffffffff811115612af357612af2612ab6565b5b602083019150836001820283011115612b0f57612b0e612abb565b5b9250929050565b60008060208385031215612b2d57612b2c6124fd565b5b600083013567ffffffffffffffff811115612b4b57612b4a612502565b5b612b5785828601612ac0565b92509250509250929050565b60008060408385031215612b7a57612b796124fd565b5b6000612b8885828601612753565b9250506020612b9985828601612753565b9150509250929050565b7f4e487b7100000000000000000000000000000000000000000000000000000000600052602260045260246000fd5b60006002820490506001821680612bea57607f821691505b602082108103612bfd57612bfc612ba3565b5b50919050565b7f4552433732313a20617070726f76656420717565727920666f72206e6f6e657860008201527f697374656e7420746f6b656e0000000000000000000000000000000000000000602082015250565b6000612c5f602c836125cd565b9150612c6a82612c03565b604082019050919050565b60006020820190508181036000830152612c8e81612c52565b9050919050565b7f4552433732313a20617070726f76616c20746f2063757272656e74206f776e6560008201527f7200000000000000000000000000000000000000000000000000000000000000602082015250565b6000612cf16021836125cd565b9150612cfc82612c95565b604082019050919050565b60006020820190508181036000830152612d2081612ce4565b9050919050565b7f4552433732313a20617070726f76652063616c6c6572206973206e6f74206f7760008201527f6e6572206e6f7220617070726f76656420666f7220616c6c0000000000000000602082015250565b6000612d836038836125cd565b9150612d8e82612d27565b604082019050919050565b60006020820190508181036000830152612db281612d76565b9050919050565b7f4552433732313a207472616e736665722063616c6c6572206973206e6f74206f60008201527f776e6572206e6f7220617070726f766564000000000000000000000000000000602082015250565b6000612e156031836125cd565b9150612e2082612db9565b604082019050919050565b60006020820190508181036000830152612e4481612e08565b9050919050565b7f4f776e61626c653a2063616c6c6572206973206e6f7420746865206f776e6572600082015250565b6000612e816020836125cd565b9150612e8c82612e4b565b602082019050919050565b60006020820190508181036000830152612eb081612e74565b9050919050565b7f4e46544d61726b65743a2062616c616e6365206973207a65726f000000000000600082015250565b6000612eed601a836125cd565b9150612ef882612eb7565b602082019050919050565b60006020820190508181036000830152612f1c81612ee0565b9050919050565b7f4e46544d61726b65743a206e6674206e6f74206c697374656420666f7220736160008201527f6c65000000000000000000000000000000000000000000000000000000000000602082015250565b6000612f7f6022836125cd565b9150612f8a82612f23565b604082019050919050565b60006020820190508181036000830152612fae81612f72565b9050919050565b7f4e46544d61726b65743a20796f75277265206e6f74207468652073656c6c6572600082015250565b6000612feb6020836125cd565b9150612ff682612fb5565b602082019050919050565b6000602082019050818103600083015261301a81612fde565b9050919050565b60006060820190506130366000830186612712565b6130436020830185612712565b6130506040830184612828565b949350505050565b50565b60006130686000836125cd565b915061307382613058565b600082019050919050565b6000819050919050565b6000819050919050565b60006130ad6130a86130a38461307e565b613088565b61267d565b9050919050565b6130bd81613092565b82525050565b600060a0820190506130d86000830187612828565b6130e56020830186612712565b6130f26040830185612712565b81810360608301526131038161305b565b905061311260808301846130b4565b95945050505050565b7f4e46544d61726b65743a20696e6e636f72726563742070726963650000000000600082015250565b6000613151601b836125cd565b915061315c8261311b565b602082019050919050565b6000602082019050818103600083015261318081613144565b9050919050565b7f4552433732313a206f776e657220717565727920666f72206e6f6e657869737460008201527f656e7420746f6b656e0000000000000000000000000000000000000000000000602082015250565b60006131e36029836125cd565b91506131ee82613187565b604082019050919050565b60006020820190508181036000830152613212816131d6565b9050919050565b7f4552433732313a2062616c616e636520717565727920666f7220746865207a6560008201527f726f206164647265737300000000000000000000000000000000000000000000602082015250565b6000613275602a836125cd565b915061328082613219565b604082019050919050565b600060208201905081810360008301526132a481613268565b9050919050565b7f4e46544d61726b65743a207072696365206d757374206265206772656174657260008201527f207468616e203000000000000000000000000000000000000000000000000000602082015250565b60006133076027836125cd565b9150613312826132ab565b604082019050919050565b60006020820190508181036000830152613336816132fa565b9050919050565b600060a0820190506133526000830187612828565b61335f6020830186612712565b61336c6040830185612712565b818103606083015261337d8161305b565b905061338c6080830184612828565b95945050505050565b60006133a183856125cd565b93506133ae8385846129b4565b6133b783612611565b840190509392505050565b600060a0820190506133d76000830189612828565b6133e46020830188612712565b6133f16040830187612712565b8181036060830152613404818587613395565b905061341360808301846130b4565b979650505050505050565b7f45524337323155524953746f726167653a2055524920717565727920666f722060008201527f6e6f6e6578697374656e7420746f6b656e000000000000000000000000000000602082015250565b600061347a6031836125cd565b91506134858261341e565b604082019050919050565b600060208201905081810360008301526134a98161346d565b9050919050565b600081905092915050565b60006134c6826125c2565b6134d081856134b0565b93506134e08185602086016125de565b80840191505092915050565b60006134f882856134bb565b915061350482846134bb565b91508190509392505050565b7f4f776e61626c653a206e6577206f776e657220697320746865207a65726f206160008201527f6464726573730000000000000000000000000000000000000000000000000000602082015250565b600061356c6026836125cd565b915061357782613510565b604082019050919050565b6000602082019050818103600083015261359b8161355f565b9050919050565b7f4552433732313a206f70657261746f7220717565727920666f72206e6f6e657860008201527f697374656e7420746f6b656e0000000000000000000000000000000000000000602082015250565b60006135fe602c836125cd565b9150613609826135a2565b604082019050919050565b6000602082019050818103600083015261362d816135f1565b9050919050565b7f4552433732313a207472616e736665722066726f6d20696e636f72726563742060008201527f6f776e6572000000000000000000000000000000000000000000000000000000602082015250565b60006136906025836125cd565b915061369b82613634565b604082019050919050565b600060208201905081810360008301526136bf81613683565b9050919050565b7f4552433732313a207472616e7366657220746f20746865207a65726f2061646460008201527f7265737300000000000000000000000000000000000000000000000000000000602082015250565b60006137226024836125cd565b915061372d826136c6565b604082019050919050565b6000602082019050818103600083015261375181613715565b9050919050565b7f4e487b7100000000000000000000000000000000000000000000000000000000600052601160045260246000fd5b60006137928261267d565b915061379d8361267d565b9250828210156137b0576137af613758565b5b828203905092915050565b60006137c68261267d565b91506137d18361267d565b9250827fffffffffffffffffffffffffffffffffffffffffffffffffffffffffffffffff0382111561380657613805613758565b5b828201905092915050565b600061381c8261267d565b91506138278361267d565b9250817fffffffffffffffffffffffffffffffffffffffffffffffffffffffffffffffff04831182151516156138605761385f613758565b5b828202905092915050565b7f4e487b7100000000000000000000000000000000000000000000000000000000600052601260045260246000fd5b60006138a58261267d565b91506138b08361267d565b9250826138c0576138bf61386b565b5b828204905092915050565b7f4552433732313a20617070726f766520746f2063616c6c657200000000000000600082015250565b60006139016019836125cd565b915061390c826138cb565b602082019050919050565b60006020820190508181036000830152613930816138f4565b9050919050565b7f4552433732313a207472616e7366657220746f206e6f6e20455243373231526560008201527f63656976657220696d706c656d656e7465720000000000000000000000000000602082015250565b60006139936032836125cd565b915061399e82613937565b604082019050919050565b600060208201905081810360008301526139c281613986565b9050919050565b7f45524337323155524953746f726167653a2055524920736574206f66206e6f6e60008201527f6578697374656e7420746f6b656e000000000000000000000000000000000000602082015250565b6000613a25602e836125cd565b9150613a30826139c9565b604082019050919050565b60006020820190508181036000830152613a5481613a18565b9050919050565b7f4552433732314d657461646174613a2055524920717565727920666f72206e6f60008201527f6e6578697374656e7420746f6b656e0000000000000000000000000000000000602082015250565b6000613ab7602f836125cd565b9150613ac282613a5b565b604082019050919050565b60006020820190508181036000830152613ae681613aaa565b9050919050565b600081519050919050565b600082825260208201905092915050565b6000613b1482613aed565b613b1e8185613af8565b9350613b2e8185602086016125de565b613b3781612611565b840191505092915050565b6000608082019050613b576000830187612712565b613b646020830186612712565b613b716040830185612828565b8181036060830152613b838184613b09565b905095945050505050565b600081519050613b9d81612533565b92915050565b600060208284031215613bb957613bb86124fd565b5b6000613bc784828501613b8e565b91505092915050565b6000613bdb8261267d565b91507fffffffffffffffffffffffffffffffffffffffffffffffffffffffffffffffff8203613c0d57613c0c613758565b5b600182019050919050565b6000613c238261267d565b9150613c2e8361267d565b925082613c3e57613c3d61386b565b5b828206905092915050565b7f4e487b7100000000000000000000000000000000000000000000000000000000600052603260045260246000fd5b7f4552433732313a206d696e7420746f20746865207a65726f2061646472657373600082015250565b6000613cae6020836125cd565b9150613cb982613c78565b602082019050919050565b60006020820190508181036000830152613cdd81613ca1565b9050919050565b7f4552433732313a20746f6b656e20616c7265616479206d696e74656400000000600082015250565b6000613d1a601c836125cd565b9150613d2582613ce4565b602082019050919050565b60006020820190508181036000830152613d4981613d0d565b905091905056fea264697066735822122081b623a69667d143216d0367f3cea78b3538b086c0c0b300bfbe3eee7e480c4f64736f6c634300080d0033",
  "linkReferences": {},
  "deployedLinkReferences": {}
}